:100000000C9435000C945D000C945D000C945D0024
:100010000C945D000C945D000C945D000C945D00EC
:100020000C945D000C945D000C945D000C945D00DC
:100030000C945D000C945D000C945D000C945D00CC
:100040000C94A8020C945D000C9418030C94F2021A
:100050000C945D000C945D000C945D000C945D00AC
:100060000C945D000C945D00A60411241FBECFEF1C
:10007000D8E0DEBFCDBF22E0A4E5B2E001C01D9212
:10008000AA3FB207E1F712E0A0E0B1E0EEE2FAE049
:1000900002C005900D92A435B107D9F710E0C5E371
:1000A000D0E004C02197FE010E940F05C433D107A0
:1000B000C9F70E944A030C9415050C940000AF92F6
:1000C000BF92CF92DF92EF92FF920F931F93CF9345
:1000D000DF936C017B018B01040F151FEB015E01A7
:1000E000AE18BF08C017D10759F06991D601ED913C
:1000F000FC910190F081E02DC6010995892B79F7DB
:10010000C501DF91CF911F910F91FF90EF90DF908C
:10011000CF90BF90AF900895FC01538D448D252F53
:1001200030E0842F90E0821B930B541710F0CF9691
:10013000089501970895FC01918D828D981761F0C3
:10014000A28DAE0FBF2FB11D5D968C91928D9F5FDA
:100150009F73928F90E008958FEF9FEF0895FC01B9
:10016000918D828D981731F0828DE80FF11D858D6C
:1001700090E008958FEF9FEF08952FB7F894809146
:10018000590290915A02A0915B02B0915C022FBF7C
:100190008093650290936602A0936702B093680211
:1001A0008DE592E00E94AF0097FF26C02FB7F8942C
:1001B0008091590290915A02A0915B02B0915C0229
:1001C0002FBF409165025091660260916702709165
:1001D0006802841B950BA60BB70B409161025091EE
:1001E0006202609163027091640284179507A6070A
:1001F000B707B0F28FEF9FEF0895CF92DF92EF92A3
:10020000FF92CF930E94BD00FC0197FD4EC08D323E
:10021000910521F0C0970A9708F040C0C12CD12C5D
:100220007601C0E0E130F105D1F0ED32F105D9F110
:10023000CF01C0970A9798F4AAE0B0E0A701960111
:100240000E94D3046F01FF0FEE08FF08C60ED71EF1
:10025000E81EF91E80E3C81AD108E108F1088DE50F
:1002600092E00E949B000E94BD00FC01C0970A978B
:10027000C8F2E130F105B1F2CC2341F0F094E09402
:10028000D094C094C11CD11CE11CF11CC701B60163
:10029000CF91FF90EF90DF90CF9008958DE592E0A1
:1002A0000E949B00AFCFC1E0DACFC12CD12C7601E8
:1002B000EDCFFC01918D228D892F90E0805C9F4FC6
:1002C000821B91098F73992708958DE592E00E9412
:1002D000590121E0892B09F420E0822F089580E064
:1002E00090E0892B29F00E94650181110C94000097
:1002F0000895FC01A48DA80FB92FB11DA35ABF4FBB
:100300002C91848D90E001968F739927848FA68914
:10031000B7892C93A089B1898C91837080648C9368
:10032000938D848D981306C00288F389E02D808117
:100330008F7D80830895EF92FF920F931F93CF9349
:10034000DF93EC0181E0888F9B8D8C8D98131AC010
:10035000E889F989808185FF15C09FB7F894EE89F7
:10036000FF896083E889F989808183708064808354
:100370009FBF81E090E0DF91CF911F910F91FF909F
:10038000EF900895F62E0B8D10E00F5F1F4F0F7347
:100390001127E02E8C8D8E110CC00FB607FCFACF02
:1003A000E889F989808185FFF5CFCE010E94790126
:1003B000F1CFEB8DEC0FFD2FF11DE35AFF4FF082D3
:1003C0009FB7F8940B8FEA89FB8980818062CFCF39
:1003D000CF93DF93EC01888D8823B9F0AA89BB897C
:1003E000E889F9898C9185FD03C0808186FD0DC067
:1003F0000FB607FCF7CF8C9185FFF2CF808185FF88
:10040000EDCFCE010E947901E9CFDF91CF91089520
:10041000FC0101900020E9F73197AF01481B590B0F
:10042000BC018DE592E00C945F00CF93DF930E94B6
:100430000802EC0182E191E00E9408028C0F9D1FEE
:10044000DF91CF9108958F929F92AF92BF92CF92FA
:10045000DF92EF92FF920F931F93CF93DF93CDB76D
:10046000DEB7A1970FB6F894DEBF0FBECDBF6C010B
:10047000990FEE08FF08F7FE47C06DE28DE592E0A8
:100480000E949B018C0122273327A9012C193D09C9
:100490004E095F0919A2CE0181967C019AE0892E4E
:1004A000912CA12CB12CCA01B901A50194010E9483
:1004B000ED04605DF70162937F012115310541056F
:1004C000510589F790E080E0309719F0CF010E9444
:1004D0000802080F191F82E191E00E940802800FB4
:1004E000911FA1960FB6F894DEBF0FBECDBFDF916E
:1004F000CF911F910F91FF90EF90DF90CF90BF9021
:10050000AF909F908F900895A701960119A28E0138
:100510000F5D1F4F8AE0C82ED12CE12CF12CCA01AF
:10052000B901A70196010E94ED04605DF801629394
:100530008F01211531054105510589F7309729F0C3
:10054000CF010E9408028C01C6CF10E000E0C3CFAB
:100550001F920F920FB60F9211242F933F938F93F8
:100560009F93AF93BF938091590290915A02A091AB
:100570005B02B0915C023091580223E0230F2D37CB
:1005800058F50196A11DB11D209358028093590280
:1005900090935A02A0935B02B0935C028091540244
:1005A00090915502A0915602B09157020196A11D5B
:1005B000B11D8093540290935502A0935602B093BC
:1005C0005702BF91AF919F918F913F912F910F90C3
:1005D0000FBE0F901F90189526E8230F0296A11DBD
:1005E000B11DD2CF1F920F920FB60F9211242F93ED
:1005F0003F934F935F936F937F938F939F93AF93AB
:10060000BF93EF93FF938DE592E00E947901FF91F4
:10061000EF91BF91AF919F918F917F916F915F917A
:100620004F913F912F910F900FBE0F901F901895F3
:100630001F920F920FB60F9211242F938F939F93B7
:10064000EF93FF93E0916D02F0916E028081E09153
:100650007302F091740282FD1BC09081809176023A
:100660008F5F8F7320917702821741F0E0917602BD
:10067000F0E0E35AFD4F958F80937602FF91EF9162
:100680009F918F912F910F900FBE0F901F901895F3
:100690008081F4CF789484B5826084BD84B5816014
:1006A00084BD85B5826085BD85B5816085BD80913D
:1006B0006E00816080936E001092810080918100B5
:1006C00082608093810080918100816080938100AD
:1006D000809180008160809380008091B10084606F
:1006E0008093B1008091B00081608093B0008091D0
:1006F0007A00846080937A0080917A00826080938F
:100700007A0080917A00816080937A0080917A00EB
:10071000806880937A001092C100E0916D02F091A0
:100720006E0282E08083E0916902F0916A02108299
:10073000E0916B02F0916C028FEC80831092750255
:10074000E0917102F091720286E08083E0916F0285
:10075000F0917002808180618083E0916F02F0915E
:100760007002808188608083E0916F02F091700256
:10077000808180688083E0916F02F09170028081B7
:100780008F7D808330E0A32E30E0B32E85E191E0B1
:100790000E94150286E391E00E94150281E491E037
:1007A0000E94150201E010E08DE592E00E945901DF
:1007B000892BA1F401301105B9F3C130D105A1F0A5
:1007C000C230D10509F484C0A114B104F9F20E9429
:1007D00065018823B9F20E940000D4CF0E94FD0079
:1007E000EB0102E010E0E0CF88E491E00E94080213
:1007F00002E010E08DE592E00E945901892B09F09A
:1008000043C002301105B1F38CE691E00E9408026A
:1008100003E010E08DE592E00E945901892BE9F593
:1008200003301105B9F387E891E00E94080204E063
:1008300010E08DE592E00E945901892BB9F5043052
:100840001105B9F382EA91E00E94080205E010E088
:100850008DE592E00E945901892B89F5053011053B
:10086000B9F38601080D191D020D131D0E0D1F1D74
:100870008DEB91E00E940802C8010E94230282E1F0
:1008800091E00E940802A0CF0E94FD006B01CB0105
:100890000E94230203E010E0ADCF0E94FD004B0157
:1008A000CB010E94230204E010E0B4CF0E94FD00BF
:1008B0001B01CB010E94230205E010E0BACF0E9489
:1008C000FD007B01CB010E94230206E010E0C0CFB7
:1008D0008AEE91E00E9408028DE592E00E945901A3
:1008E000892B11F5C230D105B9F38FE092E00E9457
:1008F000080203E010E08DE592E00E945901892B87
:10090000E1F403301105B9F38BE292E00E94080292
:10091000649CC001659C900D749C900D112497FD02
:10092000019695958795A9CF0E94FD003B01CB01CB
:100930000E942302C3E0D0E0CFCF0E94FD002B0134
:10094000CB010E94230204E010E0D5CFEDE5F2E0F8
:100950001382128288EE93E0A0E0B0E08483958356
:10096000A683B78384E091E09183808385EC90E057
:100970009587848784EC90E09787868780EC90E069
:10098000918B808B81EC90E0938B828B82EC90E05A
:10099000958B848B86EC90E0978B868B118E128ED4
:1009A000138E148E08950E94DE04A59F900DB49FAF
:1009B000900DA49F800D911D11240895A29FB00158
:1009C000B39FC001A39F700D811D1124911DB29F83
:1009D000700D811D1124911D0895A1E21A2EAA1BEC
:1009E000BB1BFD010DC0AA1FBB1FEE1FFF1FA217DF
:1009F000B307E407F50720F0A21BB30BE40BF50BDC
:100A0000661F771F881F991F1A9469F76095709564
:100A1000809590959B01AC01BD01CF010895EE0F2B
:0E0A2000FF1F0590F491E02D0994F894FFCF8C
:100A2E00000000009B015F008C00E80159019B0053
:100A3E00AF000D0A004D656E6361726920686173C7
:100A4E00696C2064617269204C6179616E67204C1B
:100A5E006179616E6700312E4B656C696C696E67EA
:100A6E0000322E4C75617300616E6461206D656D90
:100A7E00696C6968206B656C696C696E672C206D9A
:100A8E006173756B616E2061203A200053696C6151
:100A9E006B616E206D6173756B616E206E696C613A
:100AAE00692062203A200053696C616B616E206D83
:100ABE006173756B616E206E696C61692063203A9B
:100ACE00200053696C616B616E206D6173756B6193
:100ADE006E206E696C61692064203A200068617333
:100AEE00696C206F70657261736920646172692030
:100AFE006B656C696C696E67206C6179616E6720DD
:100B0E006C6179616E67203A2000616E6461206DC0
:100B1E00656D696C6968206B656C696C696E672CB4
:100B2E00206D6173756B616E206162203A200053F7
:100B3E00696C616B616E206D6173756B616E206E99
:100B4E00696C6169206364203A2000686173696C86
:100B5E00206F7065726173692064617269206C75B3
:100B6E006173206C6179616E67206C6179616E676B
:040B7E00203A2000F9
:00000001FF
